:100000000C9446000C9465000C9465000C946500FB
:100010000C9465000C9465000C9465000C946500CC
:100020000C9465000C9465000C9465000C946500BC
:100030000C9465000C9470010C9465000C946500A0
:100040000C9465000C9465000C9465000C9465009C
:100050000C9465000C9465000C9465000C9465008C
:100060000C9465000C9465000C9465000C9465007C
:100070000C9465000C9465000C9465000C9465006C
:100080000C9465000C9465000C94650011241FBE4F
:10009000CFEFD0E4DEBFCDBF11E0A0E0B1E0E2E5FC
:1000A000F9E000E00BBF02C007900D92A232B10749
:1000B000D9F721E0A2E2B1E001C01D92AD34B20750
:1000C000E1F70E94BB020C94A7040C940000CF93AC
:1000D000DF9300D01F92CDB7DEB789837B836A831D
:1000E00089818A3031F48A819B81BC018DE00E9434
:1000F000670080EC90E0FC018081882F90E08072A6
:100100009927892BB1F386EC90E02981FC012083AB
:1001100080E090E00F900F900F90DF91CF910895C5
:10012000CF93DF9300D000D0CDB7DEB78B836C8345
:100130001A82198233C08C81882331F488E290E0DE
:1001400028E0FC01208308C08C81813029F488E2FA
:1001500090E020E2FC01208388E290E028E230E099
:10016000F9012081422F2B81222F30E0098002C02B
:10017000359527950A94E2F72170242BFC01208302
:1001800088E290E028E230E0F90120812260FC0161
:10019000208389819A8101969A83898389819A81B2
:1001A00008974CF28C81882351F488E290E028E291
:1001B00030E0F90120812460FC0120830CC08C8197
:1001C000813049F488E290E028E230E0F9012081B2
:1001D0002061FC01208388E290E0FC011082000095
:1001E0000F900F900F900F90DF91CF910895CF93C4
:1001F000DF93CDB7DEB78AE790E02AE730E0F90178
:100200002081206EFC0120830000DF91CF910895B2
:10021000CF93DF931F92CDB7DEB789838CE790E051
:100220002981283028F02CE730E0F901208101C035
:100230002981FC0120831092260106C000008091D4
:1002400026018F5F80932601809126018F30B0F3C5
:1002500000000F90DF91CF910895CF93DF93CDB73A
:10026000DEB781E890E02BE0FC01208388E890E095
:100270002DE730E0FC01318320838FE690E022E01F
:10028000FC01208384E890E0FC01118210828091BF
:100290000E0190910F01A0911001B0911101809376
:1002A000220190932301A0932401B09325018FE5AF
:1002B00090E02FE530E0F90120812068FC012083E7
:1002C0000000DF91CF910895CF93DF93CDB7DEB7D4
:1002D00081E890E0FC0110820000DF91CF91089549
:1002E0001F920F9200905F000F92112400905B000C
:1002F0000F922F933F934F935F936F937F938F93BF
:100300009F93AF93BF93EF93FF93CF93DF93CDB7BB
:10031000DEB78091220190912301A0912401B09138
:1003200025010197A109B10980932201909323012E
:10033000A0932401B0932501809122019091230183
:10034000A0912401B0912501892B8A2B8B2B91F44C
:100350000E94000280910E0190910F01A091100166
:10036000B09111018093220190932301A093240165
:10037000B09325010000DF91CF91FF91EF91BF91E4
:10038000AF919F918F917F916F915F914F913F912D
:100390002F910F9000925B000F9000925F000F90E2
:1003A0001F901895CF93DF9300D000D0CDB7DEB764
:1003B00069837A838B839C8389819A81AB81BC8199
:1003C00080930E0190930F01A0931001B09311013F
:1003D00080910E0190910F01A0911001B091110137
:1003E0008093220190932301A0932401B0932501CF
:1003F00000000F900F900F900F90DF91CF91089514
:100400000F931F93CF93DF931F92CDB7DEB719825F
:10041000A6C08981282F30E0C901880F991F820F5B
:10042000931F880F991F880F991F835D9E4FFC01B2
:1004300020813181428153818981682F70E0CB0115
:10044000880F991F860F971F880F991F880F991F74
:10045000875D9E4FFC0180819181A281B381281725
:1004600039074A075B0708F449C08981082F10E063
:100470008981282F30E0C901880F991F820F931FAF
:10048000880F991F880F991F8F5C9E4FFC01408138
:1004900051818981282F30E0C901880F991F820F6F
:1004A000931F880F991F880F991F895D9E4FFC012C
:1004B00080819181FA0109959C01C801880F991FDB
:1004C000800F911F880F991F880F991F895D9E4F7C
:1004D000FC01318320838981282F30E0C901880FF6
:1004E000991F820F931F880F991F880F991F835D93
:1004F0009E4FFC0110821182128213828981682F23
:1005000070E08981282F30E0C901880F991F820F80
:10051000931F880F991F880F991F835D9E4FFC01C1
:1005200080819181A281B38121E030E040E050E000
:10053000280F391F4A1F5B1FCB01880F991F860F99
:10054000971F880F991F880F991F835D9E4FFC018D
:10055000208331834283538389818F5F898383E042
:100560009981981708F455CF00000F90DF91CF9133
:100570001F910F910895CF93DF931F92CDB7DEB7F0
:1005800084E290E027E0FC01208385E290E0FC011A
:1005900010828AE290E02FEFFC0120838BE290E052
:1005A000FC01108287E290E02FEFFC01208388E2BB
:1005B00090E0FC01108219820E94F7008981282FA7
:1005C00030E0C901880F991F820F931F880F991F70
:1005D000880F991F895D9E4FFC01118210828981CD
:1005E000682F70E021E030E040E050E0CB01880F60
:1005F000991F860F971F880F991F880F991F875D76
:100600009E4FFC0120833183428353838981682F6D
:1006100070E08981282F30E0C901880F991F820F6F
:10062000931F880F991F880F991F875D9E4FFC01AC
:100630002081318142815381CB01880F991F860F20
:10064000971F880F991F880F991F835D9E4FFC018C
:1006500020833183428353838981282F30E0C9016D
:10066000880F991F820F931F880F991F880F991F5A
:100670008F5C9E4F2AE034E0FC0131832083898126
:100680008F5F89838981282F30E0C901880F991FE6
:10069000820F931F880F991F880F991F895D9E4FA6
:1006A000FC01118210828981682F70E02AEF30E00E
:1006B00040E050E0CB01880F991F860F971F880FED
:1006C000991F880F991F875D9E4FFC0120833183FE
:1006D000428353838981682F70E08981282F30E01D
:1006E000C901880F991F820F931F880F991F880FC8
:1006F000991F875D9E4FFC0120813181428153818A
:10070000CB01880F991F860F971F880F991F880F9D
:10071000991F835D9E4FFC01208331834283538365
:100720008981282F30E0C901880F991F820F931FFC
:10073000880F991F880F991F8F5C9E4F23E234E02A
:10074000FC013183208389818F5F89838981282FF0
:1007500030E0C901880F991F820F931F880F991FDE
:10076000880F991F895D9E4FFC011182108289813B
:10077000682F70E02AEF30E040E050E0CB01880FB6
:10078000991F860F971F880F991F880F991F875DE4
:100790009E4FFC0120833183428353838981682FDC
:1007A00070E08981282F30E0C901880F991F820FDE
:1007B000931F880F991F880F991F875D9E4FFC011B
:1007C0002081318142815381CB01880F991F860F8F
:1007D000971F880F991F880F991F835D9E4FFC01FB
:1007E00020833183428353838981282F30E0C901DC
:1007F000880F991F820F931F880F991F880F991FC9
:100800008F5C9E4F25E634E0FC01318320830E94FB
:100810002D01FFCFCF93DF9300D0CDB7DEB79A8302
:10082000898380914C0160E00E94900080914B018F
:10083000809561E00E94900089819A810F900F90CD
:10084000DF91CF910895CF93DF9300D000D0CDB743
:10085000DEB79C838B8380E00E94080188E790E0EC
:10086000FC01808191819A8389838B819C81892B72
:1008700009F01EC089819A818333924050F08091A3
:1008800012018230A0F080911201869580931201AE
:100890000EC089819A818E3C914048F4809112016A
:1008A00088232CF080911201880F809312010000A0
:1008B0008091120180934C018B819C810F900F904D
:1008C0000F900F90DF91CF910895CF93DF9300D0D9
:1008D00000D0CDB7DEB79C838B8381E00E940801F6
:1008E00088E790E0FC01808191819A8389838B81E4
:1008F0009C81892B09F01EC089819A8183339240A3
:1009000050F0809113018230A0F080911301869500
:10091000809313010EC089819A818E3C914048F4E6
:1009200080911301803128F480911301880F809306
:10093000130100008091130180934B018B819C81F6
:100940000F900F900F900F90DF91CF910895F89432
:02095000FFCFD7
:10095200000000020000000067000000000001002B
:10096200000010040301000000FA00000001000072
:02097200000083
:00000001FF
